:020000040000fa
:080000000002040000000000f2
:020000040000fa
:04000800ee02000004
:020000040000fa
:04000c00cc02000022
:020000040000fa
:04001000de0200000c
:020000040000fa
:04001400d402000012
:020000040000fa
:04001800e6020000fc
:020000040000fa
:04001c00ee020000f0
:020000040000fa
:04002000ee020000ec
:020000040000fa
:04002400ee020000e8
:020000040000fa
:04002800ee020000e4
:020000040000fa
:04002c00ee020000e0
:020000040000fa
:04003000ee020000dc
:020000040000fa
:04003400ee020000d8
:020000040000fa
:04003800ee020000d4
:020000040000fa
:04003c00ee020000d0
:020000040000fa
:04004000ee020000cc
:020000040000fa
:04004400ee020000c8
:020000040000fa
:04004800ee020000c4
:020000040000fa
:04004c00ee020000c0
:020000040000fa
:04005000ee020000bc
:020000040000fa
:04005400ee020000b8
:020000040000fa
:04005800ee020000b4
:020000040000fa
:04005c00ee020000b0
:020000040000fa
:04006000ee020000ac
:020000040000fa
:04006400ee020000a8
:020000040000fa
:04006800ee020000a4
:020000040000fa
:04006c00ee020000a0
:020000040000fa
:04007000ee0200009c
:020000040000fa
:04007400ee02000098
:020000040000fa
:04007800ee02000094
:020000040000fa
:04007c00ee02000090
:020000040000fa
:04008000ee0200008c
:020000040000fa
:04008400ee02000088
:020000040000fa
:04008800ee02000084
:020000040000fa
:04008c00ee02000080
:020000040000fa
:04009000ee0200007c
:020000040000fa
:04009400ee02000078
:020000040000fa
:04009800ee02000074
:020000040000fa
:04009c00ee02000070
:020000040000fa
:0400a000ee0200006c
:020000040000fa
:0400a400ee02000068
:020000040000fa
:0400a800ee02000064
:020000040000fa
:0400ac00ee02000060
:020000040000fa
:0400b000ee0200005c
:020000040000fa
:0400b400ee02000058
:020000040000fa
:0400b800ee02000054
:020000040000fa
:0400bc00ee02000050
:020000040000fa
:0400c000ee0200004c
:020000040000fa
:0400c400ee02000048
:020000040000fa
:0400c800ee02000044
:020000040000fa
:0400cc00ee02000040
:020000040000fa
:0400d000ee0200003c
:020000040000fa
:0400d400ee02000038
:020000040000fa
:0400d800ee02000034
:020000040000fa
:0400dc00ee02000030
:020000040000fa
:0400e000ee0200002c
:020000040000fa
:0400e400ee02000028
:020000040000fa
:0400e800ee02000024
:020000040000fa
:0400ec00ee02000020
:020000040000fa
:0400f000ee0200001c
:020000040000fa
:0400f400ee02000018
:020000040000fa
:0400f800ee02000014
:020000040000fa
:0400fc00ee02000010
:020000040000fa
:04010000ee0200000b
:020000040000fa
:04010400ee02000007
:020000040000fa
:04010800ee02000003
:020000040000fa
:04010c00ee020000ff
:020000040000fa
:04011000ee020000fb
:020000040000fa
:04011400ee020000f7
:020000040000fa
:04011800ee020000f3
:020000040000fa
:04011c00ee020000ef
:020000040000fa
:04012000ee020000eb
:020000040000fa
:04012400ee020000e7
:020000040000fa
:04012800ee020000e3
:020000040000fa
:04012c00ee020000df
:020000040000fa
:04013000ee020000db
:020000040000fa
:04013400ee020000d7
:020000040000fa
:04013800ee020000d3
:020000040000fa
:04013c00ee020000cf
:020000040000fa
:04014000ee020000cb
:020000040000fa
:04014400ee020000c7
:020000040000fa
:04014800ee020000c3
:020000040000fa
:04014c00ee020000bf
:020000040000fa
:04015000ee020000bb
:020000040000fa
:04015400ee020000b7
:020000040000fa
:04015800ee020000b3
:020000040000fa
:04015c00ee020000af
:020000040000fa
:04016000ee020000ab
:020000040000fa
:04016400ee020000a7
:020000040000fa
:04016800ee020000a3
:020000040000fa
:04016c00ee0200009f
:020000040000fa
:04017000ee0200009b
:020000040000fa
:04017400ee02000097
:020000040000fa
:04017800ee02000093
:020000040000fa
:04017c00ee0200008f
:020000040000fa
:04018000ee0200008b
:020000040000fa
:04018400ee02000087
:020000040000fa
:04018800ee02000083
:020000040000fa
:04018c00ee0200007f
:020000040000fa
:04019000ee0200007b
:020000040000fa
:04019400ee02000077
:020000040000fa
:04019800ee02000073
:020000040000fa
:04019c00ee0200006f
:020000040000fa
:0401a000ee0200006b
:020000040000fa
:0401a400ee02000067
:020000040000fa
:0401a800ee02000063
:020000040000fa
:0401ac00ee0200005f
:020000040000fa
:04020800ee02000002
:020000040000fa
:04020c00ee020000fe
:020000040000fa
:04021000ee020000fa
:020000040000fa
:04021400ee020000f6
:020000040000fa
:04021800ee020000f2
:020000040000fa
:04021c00ee020000ee
:020000040000fa
:04022000ee020000ea
:020000040000fa
:04022400ee020000e6
:020000040000fa
:04022800ee020000e2
:020000040000fa
:04022c00ee020000de
:020000040000fa
:04023000ee020000da
:020000040000fa
:04023400ee020000d6
:020000040000fa
:04023800ee020000d2
:020000040000fa
:04023c00ee020000ce
:020000040000fa
:04024000ee020000ca
:020000040000fa
:04024400ee020000c6
:020000040000fa
:04024800ee020000c2
:020000040000fa
:04024c00ee020000be
:020000040000fa
:04025000ee020000ba
:020000040000fa
:04025400ee020000b6
:020000040000fa
:04025800ee020000b2
:020000040000fa
:04025c00ee020000ae
:020000040000fa
:04026000ee020000aa
:020000040000fa
:04026400ee020000a6
:020000040000fa
:04026800ee020000a2
:020000040000fa
:04026c00ee0200009e
:020000040000fa
:04027000ee0200009a
:020000040000fa
:04027400ee02000096
:020000040000fa
:04027800ee02000092
:020000040000fa
:04027c00ee0200008e
:020000040000fa
:04028000ee0200008a
:020000040000fa
:04028400ee02000086
:020000040000fa
:04028800ee02000082
:020000040000fa
:04028c00ee0200007e
:020000040000fa
:04029000ee0200007a
:020000040000fa
:04029400ee02000076
:020000040000fa
:04029800ee02000072
:020000040000fa
:04029c00ee0200006e
:020000040000fa
:0402a000ee0200006a
:020000040000fa
:0402a400ee02000066
:020000040000fa
:0402a800ee02000062
:020000040000fa
:0402ac00ee0200005e
:020000040000fa
:0402b000ee0200005a
:020000040000fa
:0402b400ee02000056
:020000040000fa
:0402b800ee02000052
:020000040000fa
:0402bc00ee0200004e
:020000040000fa
:0402c000ee0200004a
:020000040000fa
:0402c400ee02000046
:020000040000fa
:0402c800ee02000042
:020000040000fa
:0402cc00ee0200003e
:020000040000fa
:0402d000ee0200003a
:020000040000fa
:0402d400ee02000036
:020000040000fa
:0402d800ee02000032
:020000040000fa
:0402dc00ee0200002e
:020000040000fa
:0402e000ee0200002a
:020000040000fa
:0402e400ee02000026
:020000040000fa
:0402e800ee02000022
:020000040000fa
:0402ec00ee0200001e
:020000040000fa
:0402f000ee0200001a
:020000040000fa
:0402f400ee02000016
:020000040000fa
:0402f800ee02000012
:020000040000fa
:0402fc00ee0200000e
:020000040000fa
:04030000ee02000009
:020000040000fa
:04030400ee02000005
:020000040000fa
:04030800ee02000001
:020000040000fa
:04030c00ee020000fd
:020000040000fa
:04031000ee020000f9
:020000040000fa
:04031400ee020000f5
:020000040000fa
:04031800ee020000f1
:020000040000fa
:04031c00ee020000ed
:020000040000fa
:04032000ee020000e9
:020000040000fa
:04032400ee020000e5
:020000040000fa
:04032800ee020000e1
:020000040000fa
:04032c00ee020000dd
:020000040000fa
:04033000ee020000d9
:020000040000fa
:04033400ee020000d5
:020000040000fa
:04033800ee020000d1
:020000040000fa
:04033c00ee020000cd
:020000040000fa
:04034000ee020000c9
:020000040000fa
:04034400ee020000c5
:020000040000fa
:04034800ee020000c1
:020000040000fa
:04034c00ee020000bd
:020000040000fa
:04035000ee020000b9
:020000040000fa
:04035400ee020000b5
:020000040000fa
:04035800ee020000b1
:020000040000fa
:04035c00ee020000ad
:020000040000fa
:04036000ee020000a9
:020000040000fa
:04036400ee020000a5
:020000040000fa
:04036800ee020000a1
:020000040000fa
:04036c00ee0200009d
:020000040000fa
:04037000ee02000099
:020000040000fa
:04037400ee02000095
:020000040000fa
:04037800ee02000091
:020000040000fa
:04037c00ee0200008d
:020000040000fa
:04038000ee02000089
:020000040000fa
:04038400ee02000085
:020000040000fa
:04038800ee02000081
:020000040000fa
:04038c00ee0200007d
:020000040000fa
:04039000ee02000079
:020000040000fa
:04039400ee02000075
:020000040000fa
:04039800ee02000071
:020000040000fa
:04039c00ee0200006d
:020000040000fa
:0403a000ee02000069
:020000040000fa
:0403a400ee02000065
:020000040000fa
:0403a800ee02000061
:020000040000fa
:0403ac00ee0200005d
:020000040000fa
:100400004f8320000eff20000e0188000000000036
:10041000000020000000e000020032000001200087
:1004200020028800140007006e0007000000e000b2
:1004300003003a004058200001002000020037006d
:100440000000200001002000810f70000100320038
:1004500014000700000020000000e000020032004d
:100460000000020000000000a603020000000000df
:100470000040da000000fe004440a9000000200017
:100480000000e0000300320000002000a00188000e
:100490004440a800000006008a1f78008b1f7800e7
:1004a0000000060091018800800478000000eb0045
:1004b0001a003700e284440032a0b4009905ba0063
:1004c000e284440032a0b4009906ba00e2844400f9
:1004d00032a0b4000006eb00476fde00fd07b2005b
:1004e000636ce10003003a00ebff07000000eb0043
:1004f0000a003700606ce10004003a00005deb0088
:100500008b05e900fdff3e00040037006168e10053
:10051000010032000086eb000b00070019c7ba008b
:100520001905ba000e04e00003003a000a00e000da
:10053000e0ff3a0000000600fe07b2009e018800be
:100540008a047800f5ff3700395dba008b05e900b1
:100550000c003200295dba008b05e900080032006a
:100560000c00e00003003a00e284440032a0b40032
:10057000f5ff370019ddba008b05e900faff3a00f4
:100580008904e800e184440032a0b40000000600c1
:1005900000000000000000003600f8008020a900e4
:1005a0000000eb006c0107003600f8006e01070048
:1005b0008040a90010002000670107003600f80005
:1005c0008060a90020002000630107003600f800c9
:1005d0008080a900300020005f0107000040da00a1
:0805e0000000fe000000050010
:020000040000fa
:1005e8000600fa00000f780011079800220798000b
:1005f8005a23ef001e007800004078006140600038
:100608000080fb00610060004c00dd00d21a800011
:10061800f1ff2e008100610001007000d01a8800ef
:100628005b63a9002e00900000407800f043b20000
:100638008080fb00f0032000008060004200dd00a5
:10064800d21a800031f02f00810061000100700093
:10065800d01a88005b03a9001e00900000407800b3
:100668006340600063406000634060000080fb00fe
:1006780063006000d21a8000c1ff2f008100610072
:1006880001007000d01a88005c23ef005e83a90087
:10069800f11a800080ff2f0000806000f01a8800a7
:1006a80000012000b90007000080fa0000000600e1
:1006b8000400fa005be3a8005d03a8005b23a80020
:1006c800810007000000eb00000f780001003700f0
:1006d8001e0fe800f07c20009e007800808f5000fc
:1006e800fbff36005b23a9000000eb00000f780039
:1006f800010037001e0fe800700c20009e007800f3
:10070800808f5000fbff36007300070001003700a0
:10071800a4000700910007000004a2000004e00004
:10072800fbff3a005d03a90085a0a9005be3a900cf
:1007380086000700100798001e0090000080fa004d
:10074800000006000200fa00c30007000001eb00e9
:10075800110020000000eb00a1ff07000040eb00a3
:10076800004f78000040eb00004f7800040037008d
:10077800c13c20001e80fb00010001001e4fe80064
:100788001e407800ef4f5000f9ff3600f5ff3700a4
:100798000600fa00404798000000eb00000f7800c0
:1007a8004e4090008080fb000082200000804000c6
:1007b800104078000080fb00740007000040eb0048
:1007c800204798000040eb002047980005003700bc
:1007d800b7ff07001e0f40002e4090000040e800c1
:1007e800204798002e4090000004e000f8ff3200f7
:1007f80000000000940007000120200001006000b4
:100808000000e000fbff3a0010c6b30082000700ba
:10081800000000008c00070001202000010060009b
:100828000000e000fbff3a004e4090007a0007000d
:100838000000000084000700012020000100600083
:100848000000e000fbff3a001e0078004800de00d0
:100858000040780070000700000000007a000700e0
:1008680001202000010060000000e000fbff3a00ca
:100878001e00780000407800670007000080fa003a
:10088800000006000000fa0000002800001a880096
:100898004223ef0030a12000201a88004823ef00ef
:1008a8004e23ef005023ef005623ef006023ef00a4
:1008b800101a80004200de007f40600032e8b70076
:1008c8000080fa00000006000000fa004023a8009b
:1008d8000080fa00000006000000fa004023a9008a
:1008e8000080fa00000006000600fa0020079800c1
:1008f80000302000100798000000eb00000f78007f
:100908000b0037001e00780000004000ae00900089
:10091800008040009e009000910078000108780057
:100928001e0090000080e800100798001e0fe800e5
:1009380032c8bf000080fb009e0f5000f1ff3d0051
:100948001e0078000080fa00000006000000fa008f
:10095800001880000080fa00000006000000fa007d
:10096800001a800000407800614060000080fb00b1
:1009780000f0a7000000ea000000ea004f00de00d7
:10098800004078000080fa00000006000200fa002b
:10099800000f78009e007800411a88000080fa0055
:1009a800000006000000fa0085a0a9000080fa00f7
:1009b800000006000000fa008000200000118800f6
:1009c8002222ef00900120004011880021e2a800b7
:1009d8002342a8000080fa00000006000000fa0088
:1009e8000000000010118000610060000000e000bd
:1009f800fcff320010118000620060000000e0007f
:100a0800010032002222a900301180000040780045
:100a18000080fa00000006000200fa00004f78008b
:100a280000000000111180000020200000806000fc
:100a38000000e000fbff3a001e80fb002011880048
:100a48000080fa00000006000000fa001011800083
:100a58000080fa00000006000000fa0014000700f9
:100a6800050007004500070086ff0700d1ff0700c3
:100a78000080fa00000006000000fa000001eb0008
:100a8800600420007105200023742000804978004c
:100a9800814978008249780000002300203a8800c4
:100aa8004827ef004e27ef000080fa0000000600fc
:100ab8000000fa00c422ef00000820006016880039
:100ac800f00b200000168800f0f72f004016880071
:100ad8005620ef005820ef006e20ef007020ef0046
:100ae800c622ef00ce22ef00f00120000027880088
:100af800b0372f00102788000080fa000000060099
:020000040000fa
:100b0800300800000200000002000000ffff0000a3
:100b1800000800002000000000000000320800006b
:100b28000200000000000000200800001000000083
:100b38000200000011100f000e0d05000302010055
:100b480000090a000b0c150014000000000000004a
:020000040000fa
:100b5800000f78009e00780081418800ffff370071
:100b68000000fa00008020008007780080812000c3
:100b7800000188000080fa00000006000000fa006a
:080b88000080fa0000000600e5
:020000040000fa
:0200000401f009
:04000000ffff0000fe
:020000040000fa
:0200000401f009
:04000800ffff0000f6
:020000040000fa
:0200000401f009
:04000c00ffff0000f2
:020000040000fa
:0200000401f009
:04001000bbff000032
:020000040000fa
:0200000401f009
:04001400dfff00000a
:020000040000fa
:0200000401f009
:04001800ffff0000e6
:020000040000fa
:0200000401f009
:04001c00feff0000e3
:00000001FF
