:020000040000fa
:080000000002040000000000f2
:020000040000fa
:04000800ee02000004
:020000040000fa
:04000c00cc02000022
:020000040000fa
:04001000de0200000c
:020000040000fa
:04001400d402000012
:020000040000fa
:04001800e6020000fc
:020000040000fa
:04001c00ee020000f0
:020000040000fa
:04002000ee020000ec
:020000040000fa
:04002400ee020000e8
:020000040000fa
:04002800ee020000e4
:020000040000fa
:04002c00ee020000e0
:020000040000fa
:04003000ee020000dc
:020000040000fa
:04003400ee020000d8
:020000040000fa
:04003800ee020000d4
:020000040000fa
:04003c00ee020000d0
:020000040000fa
:04004000ee020000cc
:020000040000fa
:04004400ee020000c8
:020000040000fa
:04004800ee020000c4
:020000040000fa
:04004c00ee020000c0
:020000040000fa
:04005000ee020000bc
:020000040000fa
:04005400ee020000b8
:020000040000fa
:04005800ee020000b4
:020000040000fa
:04005c00ee020000b0
:020000040000fa
:04006000ee020000ac
:020000040000fa
:04006400ee020000a8
:020000040000fa
:04006800ee020000a4
:020000040000fa
:04006c00ee020000a0
:020000040000fa
:04007000ee0200009c
:020000040000fa
:04007400ee02000098
:020000040000fa
:04007800ee02000094
:020000040000fa
:04007c00ee02000090
:020000040000fa
:04008000ee0200008c
:020000040000fa
:04008400ee02000088
:020000040000fa
:04008800ee02000084
:020000040000fa
:04008c00ee02000080
:020000040000fa
:04009000ee0200007c
:020000040000fa
:04009400ee02000078
:020000040000fa
:04009800ee02000074
:020000040000fa
:04009c00ee02000070
:020000040000fa
:0400a000ee0200006c
:020000040000fa
:0400a400ee02000068
:020000040000fa
:0400a800ee02000064
:020000040000fa
:0400ac00ee02000060
:020000040000fa
:0400b000ee0200005c
:020000040000fa
:0400b400ee02000058
:020000040000fa
:0400b800ee02000054
:020000040000fa
:0400bc00ee02000050
:020000040000fa
:0400c000ee0200004c
:020000040000fa
:0400c400ee02000048
:020000040000fa
:0400c800ee02000044
:020000040000fa
:0400cc00ee02000040
:020000040000fa
:0400d000ee0200003c
:020000040000fa
:0400d400ee02000038
:020000040000fa
:0400d800ee02000034
:020000040000fa
:0400dc00ee02000030
:020000040000fa
:0400e000ee0200002c
:020000040000fa
:0400e400ee02000028
:020000040000fa
:0400e800ee02000024
:020000040000fa
:0400ec00ee02000020
:020000040000fa
:0400f000ee0200001c
:020000040000fa
:0400f400ee02000018
:020000040000fa
:0400f800ee02000014
:020000040000fa
:0400fc00ee02000010
:020000040000fa
:04010000ee0200000b
:020000040000fa
:04010400ee02000007
:020000040000fa
:04010800ee02000003
:020000040000fa
:04010c00ee020000ff
:020000040000fa
:04011000ee020000fb
:020000040000fa
:04011400ee020000f7
:020000040000fa
:04011800ee020000f3
:020000040000fa
:04011c00ee020000ef
:020000040000fa
:04012000ee020000eb
:020000040000fa
:04012400ee020000e7
:020000040000fa
:04012800ee020000e3
:020000040000fa
:04012c00ee020000df
:020000040000fa
:04013000ee020000db
:020000040000fa
:04013400ee020000d7
:020000040000fa
:04013800ee020000d3
:020000040000fa
:04013c00ee020000cf
:020000040000fa
:04014000ee020000cb
:020000040000fa
:04014400ee020000c7
:020000040000fa
:04014800ee020000c3
:020000040000fa
:04014c00ee020000bf
:020000040000fa
:04015000ee020000bb
:020000040000fa
:04015400ee020000b7
:020000040000fa
:04015800ee020000b3
:020000040000fa
:04015c00ee020000af
:020000040000fa
:04016000ee020000ab
:020000040000fa
:04016400ee020000a7
:020000040000fa
:04016800ee020000a3
:020000040000fa
:04016c00ee0200009f
:020000040000fa
:04017000ee0200009b
:020000040000fa
:04017400ee02000097
:020000040000fa
:04017800ee02000093
:020000040000fa
:04017c00ee0200008f
:020000040000fa
:04018000ee0200008b
:020000040000fa
:04018400ee02000087
:020000040000fa
:04018800ee02000083
:020000040000fa
:04018c00ee0200007f
:020000040000fa
:04019000ee0200007b
:020000040000fa
:04019400ee02000077
:020000040000fa
:04019800ee02000073
:020000040000fa
:04019c00ee0200006f
:020000040000fa
:0401a000ee0200006b
:020000040000fa
:0401a400ee02000067
:020000040000fa
:0401a800ee02000063
:020000040000fa
:0401ac00ee0200005f
:020000040000fa
:04020800ee02000002
:020000040000fa
:04020c00ee020000fe
:020000040000fa
:04021000ee020000fa
:020000040000fa
:04021400ee020000f6
:020000040000fa
:04021800ee020000f2
:020000040000fa
:04021c00ee020000ee
:020000040000fa
:04022000ee020000ea
:020000040000fa
:04022400ee020000e6
:020000040000fa
:04022800ee020000e2
:020000040000fa
:04022c00ee020000de
:020000040000fa
:04023000ee020000da
:020000040000fa
:04023400ee020000d6
:020000040000fa
:04023800ee020000d2
:020000040000fa
:04023c00ee020000ce
:020000040000fa
:04024000ee020000ca
:020000040000fa
:04024400ee020000c6
:020000040000fa
:04024800ee020000c2
:020000040000fa
:04024c00ee020000be
:020000040000fa
:04025000ee020000ba
:020000040000fa
:04025400ee020000b6
:020000040000fa
:04025800ee020000b2
:020000040000fa
:04025c00ee020000ae
:020000040000fa
:04026000ee020000aa
:020000040000fa
:04026400ee020000a6
:020000040000fa
:04026800ee020000a2
:020000040000fa
:04026c00ee0200009e
:020000040000fa
:04027000ee0200009a
:020000040000fa
:04027400ee02000096
:020000040000fa
:04027800ee02000092
:020000040000fa
:04027c00ee0200008e
:020000040000fa
:04028000ee0200008a
:020000040000fa
:04028400ee02000086
:020000040000fa
:04028800ee02000082
:020000040000fa
:04028c00ee0200007e
:020000040000fa
:04029000ee0200007a
:020000040000fa
:04029400ee02000076
:020000040000fa
:04029800ee02000072
:020000040000fa
:04029c00ee0200006e
:020000040000fa
:0402a000ee0200006a
:020000040000fa
:0402a400ee02000066
:020000040000fa
:0402a800ee02000062
:020000040000fa
:0402ac00ee0200005e
:020000040000fa
:0402b000ee0200005a
:020000040000fa
:0402b400ee02000056
:020000040000fa
:0402b800ee02000052
:020000040000fa
:0402bc00ee0200004e
:020000040000fa
:0402c000ee0200004a
:020000040000fa
:0402c400ee02000046
:020000040000fa
:0402c800ee02000042
:020000040000fa
:0402cc00ee0200003e
:020000040000fa
:0402d000ee0200003a
:020000040000fa
:0402d400ee02000036
:020000040000fa
:0402d800ee02000032
:020000040000fa
:0402dc00ee0200002e
:020000040000fa
:0402e000ee0200002a
:020000040000fa
:0402e400ee02000026
:020000040000fa
:0402e800ee02000022
:020000040000fa
:0402ec00ee0200001e
:020000040000fa
:0402f000ee0200001a
:020000040000fa
:0402f400ee02000016
:020000040000fa
:0402f800ee02000012
:020000040000fa
:0402fc00ee0200000e
:020000040000fa
:04030000ee02000009
:020000040000fa
:04030400ee02000005
:020000040000fa
:04030800ee02000001
:020000040000fa
:04030c00ee020000fd
:020000040000fa
:04031000ee020000f9
:020000040000fa
:04031400ee020000f5
:020000040000fa
:04031800ee020000f1
:020000040000fa
:04031c00ee020000ed
:020000040000fa
:04032000ee020000e9
:020000040000fa
:04032400ee020000e5
:020000040000fa
:04032800ee020000e1
:020000040000fa
:04032c00ee020000dd
:020000040000fa
:04033000ee020000d9
:020000040000fa
:04033400ee020000d5
:020000040000fa
:04033800ee020000d1
:020000040000fa
:04033c00ee020000cd
:020000040000fa
:04034000ee020000c9
:020000040000fa
:04034400ee020000c5
:020000040000fa
:04034800ee020000c1
:020000040000fa
:04034c00ee020000bd
:020000040000fa
:04035000ee020000b9
:020000040000fa
:04035400ee020000b5
:020000040000fa
:04035800ee020000b1
:020000040000fa
:04035c00ee020000ad
:020000040000fa
:04036000ee020000a9
:020000040000fa
:04036400ee020000a5
:020000040000fa
:04036800ee020000a1
:020000040000fa
:04036c00ee0200009d
:020000040000fa
:04037000ee02000099
:020000040000fa
:04037400ee02000095
:020000040000fa
:04037800ee02000091
:020000040000fa
:04037c00ee0200008d
:020000040000fa
:04038000ee02000089
:020000040000fa
:04038400ee02000085
:020000040000fa
:04038800ee02000081
:020000040000fa
:04038c00ee0200007d
:020000040000fa
:04039000ee02000079
:020000040000fa
:04039400ee02000075
:020000040000fa
:04039800ee02000071
:020000040000fa
:04039c00ee0200006d
:020000040000fa
:0403a000ee02000069
:020000040000fa
:0403a400ee02000065
:020000040000fa
:0403a800ee02000061
:020000040000fa
:0403ac00ee0200005d
:020000040000fa
:100400002f8c20000eff20000e018800000000004d
:10041000000020000000e000020032000001200087
:1004200020028800140007006e0007000000e000b2
:1004300003003a006088200001002000020037001d
:100440000000200001002000810f70000100320038
:1004500014000700000020000000e000020032004d
:10046000000002000000000028060200000000005a
:100470000040da000000fe004440a9000000200017
:100480000000e0000300320000002000a00188000e
:100490004440a800000006008a1f78008b1f7800e7
:1004a0000000060091018800800478000000eb0045
:1004b0001a003700e284440032a0b4009905ba0063
:1004c000e284440032a0b4009906ba00e2844400f9
:1004d00032a0b4000006eb00476fde00fd07b2005b
:1004e000636ce10003003a00ebff07000000eb0043
:1004f0000a003700606ce10004003a00005deb0088
:100500008b05e900fdff3e00040037006168e10053
:10051000010032000086eb000b00070019c7ba008b
:100520001905ba000e04e00003003a000a00e000da
:10053000e0ff3a0000000600fe07b2009e018800be
:100540008a047800f5ff3700395dba008b05e900b1
:100550000c003200295dba008b05e900080032006a
:100560000c00e00003003a00e284440032a0b40032
:10057000f5ff370019ddba008b05e900faff3a00f4
:100580008904e800e184440032a0b40000000600c1
:1005900000000000000000003600f8008020a900e4
:1005a0000000eb002d0307003600f8002f030700c2
:1005b0008040a90010002000280307003600f80042
:1005c0008060a90020002000240307003600f80006
:1005d0008080a90030002000200307000040da00de
:1005e0000000fe0000000500889fbe008a9fbe003c
:1005f00030044200b0844a0030054b0090854b0027
:100600006000b1000898be000a90be000440e100fe
:1006100005c8e10006d0e10007d8e1000200310082
:10062000680040001008e8004f05be004f04be00ff
:1006300000000600889fbe008a9fbe003004be00f6
:100640002005be000418540005985c0006185d00e3
:1006500007985d00110020000440e10005c8e1009a
:1006600006d0e10007d8e100010039008000eb006e
:10067000108810004f05be004f04be0000000600a9
:100680001200fa00889fbe008a9fbe008c9fbe00a9
:10069000e0b79f00f1b79f0082bf9f0093bf9f000c
:1006a0000605be000404be000000eb00d0b79f00aa
:1006b000c0b79f00b0b79f00a0b79f0090b79f0042
:1006c0000006eb005fb19700cfb0970082014100b8
:1006d0003fb097000200e00004003d003700070033
:1006e0007e805700c0ff070003003700330007007b
:1006f0007e805700cfff0700dfb697000d00e000b7
:100700000c0035006fb29700ffb297000fbb970047
:100710009fbb970010002000010020006011b8006e
:1007200000027200818272000203730083837300ef
:100730001b0007000c06e80001042000810f560092
:10074000e0ff3a000d00e00004003d000802be009a
:100750000a03be007e805700a3ff07005fa8970032
:100760000000e00005003a001fb29700afb297000a
:100770003fb39700cfb39700090007006fb0970011
:10078000ffb097000fb997009fb997004f06be00c2
:100790004f05be004f04be000080fa0000000600b6
:1007a0000100070000000600a4b79f00b5b79f0036
:1007b000c6b79f00d7b79f00000006004f09de00b4
:1007c00082817100b3b79f004f01de00818040003d
:1007d00082807000a1b79f008fb097004f09de00a4
:1007e000000040000200700090b79f007fa89700b3
:1007f0004f01de00818040008280700081b79f0041
:100800000d0007004f3ade000000400004007000b9
:10081000f0af9f00080007000402420085824a00f2
:1008200006034b0087834b00dfff07000802be0072
:100830000a03be00000006002fb29700bfb2970067
:100840004fb39700dfb3970000000600881f7800c1
:1008500018002000881f780089ff07008f87e900b3
:100860004f04780000000600801feb0084ff0700a3
:100870008f87e90000000600889fbe008a9fbe00a7
:10088000e00f5000e08f5800e00f5900e08f590052
:100890000c003d006044b8006055b80000005400f2
:1008a00081805c0002015d0083815d0018002000f2
:1008b0001500070008003d00180007000004eb00c9
:1008c000050037000004eb000f00070002003d00a8
:1008d0001200070018002000dcff07000800e000fd
:1008e000060032006022b8006033b80000005200f9
:1008f00081805a0002015b0083815b004f05be00ce
:100900004f04be0000000600e00f5200e08f5a00c6
:10091000e00f5b00e08f5b00000006006044b80061
:100920006055b8000402540085825c0006035d0037
:1009300087835d0000000600889fbe008a9fbe007e
:100940008c1f7800e00f5000e08f5800e00f590036
:10095000e08f59000d003d006044b8006055b800bc
:100960000000540081805c0002015d0083815d0015
:100970001c0020000820e10009a8e1000ab0e10005
:100980000bb8e1000d003d00080037000006eb0049
:10099000e00f5200e08f5a00e00f5b00e08f5b0039
:1009a00006003d006044b8006055b80004025400e1
:1009b00085825c0006035d0087835d00aaff070057
:1009c0000c00e000060032006022b8006033b8007e
:1009d0000000520081805a0002015b0083815b00ad
:1009e0004f0678004f05be004f04be000000060011
:1009f000889fbe008a9fbe008c1f78000006eb0017
:100a0000e00f5000e08f5800e00f5900e08f5900d0
:100a100007003d006044b8006055b8000000540075
:100a200081805c0002015d0083815d001c0020006c
:100a3000e00f5200e08f5a00e00f5b00e08f5b0098
:100a400007003d006044b8006055b800040254003f
:100a500085825c0006035d0087835d000c00a200b8
:100a60000c0007000c00e000060032006022b80015
:100a70006033b8000000520081805a0002015b0020
:100a800083815b004f0678004f05be004f04be0017
:100a900000000600889fbe008a9fbe008c9fbe009b
:100aa0000404b8000506b8008904460060854e00bd
:100ab0000606b8000a054600e0854e000706b800a5
:100ac0008b054600040eb800890446000a854e00d6
:100ad000e0854d00050eb8000a0546008b854e00e6
:100ae000060eb8008b0546000416b8000a0546003d
:100af0008b854e000516b8008b054600041eb80015
:100b00008b0546000800be000a01be004f06be006d
:100b10004f05be004f04be0000000600889fbe00c7
:100b2000b04180000000e000010032000000010040
:100b3000c04180000000e000010032000000010020
:100b4000408320001004e00022003a00f0458000bd
:100b50000146800088002000d2602600930120001a
:100b600035000700f2352f00e3c6230000004100e6
:100b7000818049000804e900f7ff3a00a8832000bb
:100b80000908200088844400d260260093012000d8
:100b900029000700f2352f00e3c6230000004100c2
:100ba0008180490000acbe00890f5400f6ff3a0076
:100bb000f045880001468800d0458000e14580006e
:100bc000d0418800e141880011c0b300408320007b
:100bd00001487800d260260093012000f045800093
:100be0000146800014000700f2352f00e3c6230001
:100bf0000002410081824900f445880005468800d2
:100c0000a0832000100078007f0160004211dd0009
:100c1000e0832000020140001200be00d0418800a5
:100c2000e14188000489be000100780000f0a100c5
:100c30004f04be0000000600020ab900001bb90004
:100c40000200b8008100420081004300000006005d
:020000040000fa
:100c50000200fa00490107000001eb00110020002a
:100c60000000eb005b0007000040eb00004f780045
:100c70000040eb00004f78001500370001672000ae
:100c80001e80fb0001000100a4ff0700cf80de00f2
:100c90006109b900b4002000050020006033b800ed
:100ca000f1fe070004902000d50320006033b80057
:100cb0004fff070004242400f50020006033b80033
:100cc000e2fe07000000be00560107001e4fe800cc
:100cd0001e407800ef4f5000e8ff3600e4ff370079
:100ce0000600fa00404798000000eb00000f780073
:100cf0004e4090008080fb00008220000080400079
:100d0000104078000080fb00cd0007000040eb00a1
:100d1000204798000040eb0020479800050037006e
:100d2000600007001e0f40002e4090000040e800c9
:100d3000204798002e4090000004e000f8ff3200a9
:100d400000000000ed00070001202000010060000d
:100d50000000e000fbff3a0010c6b300db00070014
:100d600000000000e50007000120200001006000f5
:100d70000000e000fbff3a004e409000d300070067
:100d800000000000dd0007000120200001006000dd
:100d90000000e000fbff3a001e0078004800de0083
:100da00000407800c900070000000000d3000700e1
:100db00001202000010060000000e000fbff3a007d
:100dc0001e00780000407800c00007000080fa0094
:100dd000000006000600fa00000f780011079800d6
:100de000220798005a23ef001e0078000040780088
:100df000614060000080fb00610060004c00dd008d
:100e0000d21a8000f1ff2e00810061000100700005
:100e1000d01a88005b63a9002e0090000040780083
:100e2000f043b2008080fb00f003200000806000ef
:100e30004200dd00d21a800031f02f0081006100f5
:100e400001007000d01a88005b03a9001e0090000a
:100e500000407800634060006340600063406000d1
:100e60000080fb0063006000d21a8000c1ff2f00e9
:100e70008100610001007000d01a88005c23ef003f
:100e80005e83a900f11a800080ff2f0000806000bf
:100e9000f01a880000012000690007000080fa00b5
:100ea000000006000400fa005be3a8005d03a80050
:100eb0005b23a800310007000000eb00000f780062
:100ec000010037001e0fe800f07c20009e00780033
:100ed000808f5000fbff36005b23a9000000eb0071
:100ee000000f7800010037001e0fe800700c200092
:100ef0009e007800808f5000fbff36002300070023
:100f00000100370054000700410007000004a20060
:100f10000004e000fbff3a005d03a90085a0a900e2
:100f20005be3a90036000700100798001e00900040
:100f30000080fa00000006000000fa00000028000f
:100f4000001a88004223ef0030a12000201a8800f8
:100f50004823ef004e23ef005023ef005623ef000d
:100f60006023ef00101a80004200de007f40600026
:100f700032e8b7000080fa00000006000000fa0026
:100f80004023a8000080fa00000006000000fa00dc
:100f90004023a9000080fa00000006000600fa00c5
:100fa0002007980000302000100798000000eb0098
:100fb000000f78000b0037001e0078000000400092
:100fc000ae009000008040009e00900091007800ec
:100fd000010878001e0090000080e80010079800cb
:100fe0001e0fe80032c8bf000080fb009e0f5000bb
:100ff000f1ff3d001e0078000080fa0000000600ae
:101000000000fa00001880000080fa0000000600ce
:101010000000fa00001a8000004078006140600083
:101020000080fb0000f0a7000000ea000000ea00da
:101030004f00de00004078000080fa00000006004b
:101040000200fa00000f78009e007800411a880024
:101050000080fa00000006000000fa0085a0a90048
:101060000080fa00000006000000fa008000200066
:10107000001188002222ef0090012000401188001a
:1010800021e2a8002342a8000080fa000000060028
:101090000000fa00000000001011800061006000f4
:1010a0000000e000fcff32001011800062006000d0
:1010b0000000e000010032002222a900301180006f
:1010c000004078000080fa00000006000200fa00ec
:1010d000004f780000000000111180000020200067
:1010e000008060000000e000fbff3a001e80fb0073
:1010f000201188000080fa00000006000000fa00bd
:0c110000101180000080fa0000000600c2
:020000040000fa
:10110c00300800000200000002000000ffff000099
:10111c000008000020000000000000003208000061
:10112c000200000000000000200800001000000079
:10113c000200000011100f000e0d0500030201004b
:10114c0000090a000b0c150014000000be0800007a
:10115c00040000000200000001000000000000007c
:10116c00340800008a0000000000000000000000ad
:020000040000fa
:10117c000000fa0014000700050007003f000700fc
:10118c006aff0700b5ff07000080fa0000000600a8
:10119c000000fa000001eb00600420007105200043
:1011ac0023742000804978008149780082497800b6
:1011bc0000002300203a88004827ef004e27ef005c
:1011cc000080fa00000006000000fa00c422ef00c4
:1011dc000008200060168800f00b20000016880024
:1011ec00f0f72f00401688005620ef005820ef0033
:1011fc006e20ef007020ef00c622ef00ce22ef0031
:10120c00f001200000278800b0372f00102788003d
:08121c000080fa00000006004a
:020000040000fa
:10122400f03fb1000180b10006003500ee03090073
:1012340000000000403fb1000180b100fbff3d0011
:101244001000b000203fb00002003500008009000b
:0812540000000000000006008c
:020000040000fa
:10125c00000f78009e00780081418800ffff370066
:10126c000000fa00008020008007780080812000b8
:10127c00000188000080fa00000006000000fa005f
:08128c000080fa0000000600da
:020000040000fa
:0200000401f009
:04000000ffff0000fe
:020000040000fa
:0200000401f009
:04000800ffff0000f6
:020000040000fa
:0200000401f009
:04000c00ffff0000f2
:020000040000fa
:0200000401f009
:04001000bbff000032
:020000040000fa
:0200000401f009
:04001400dfff00000a
:020000040000fa
:0200000401f009
:04001800ffff0000e6
:020000040000fa
:0200000401f009
:04001c00feff0000e3
:00000001FF
